{
  "_format": "hh-sol-artifact-1",
  "contractName": "PrePrintTrack",
  "sourceName": "contracts/PrePrintTrack.sol",
  "abi": [
    {
      "inputs": [],
      "stateMutability": "payable",
      "type": "constructor"
    },
    {
      "anonymous": false,
      "inputs": [
        {
          "indexed": true,
          "internalType": "address",
          "name": "previousOwner",
          "type": "address"
        },
        {
          "indexed": true,
          "internalType": "address",
          "name": "newOwner",
          "type": "address"
        }
      ],
      "name": "OwnershipTransferred",
      "type": "event"
    },
    {
      "anonymous": false,
      "inputs": [
        {
          "indexed": false,
          "internalType": "string",
          "name": "_fileCID",
          "type": "string"
        },
        {
          "indexed": false,
          "internalType": "string",
          "name": "keyInfo",
          "type": "string"
        },
        {
          "indexed": true,
          "internalType": "address",
          "name": "_submitAddress",
          "type": "address"
        },
        {
          "indexed": true,
          "internalType": "uint256",
          "name": "_submitTime",
          "type": "uint256"
        },
        {
          "indexed": false,
          "internalType": "string",
          "name": "_description",
          "type": "string"
        }
      ],
      "name": "Submit",
      "type": "event"
    },
    {
      "inputs": [],
      "name": "getBalance",
      "outputs": [
        {
          "internalType": "uint256",
          "name": "",
          "type": "uint256"
        }
      ],
      "stateMutability": "view",
      "type": "function"
    },
    {
      "inputs": [],
      "name": "isOwner",
      "outputs": [
        {
          "internalType": "bool",
          "name": "",
          "type": "bool"
        }
      ],
      "stateMutability": "view",
      "type": "function"
    },
    {
      "inputs": [],
      "name": "owner",
      "outputs": [
        {
          "internalType": "address payable",
          "name": "",
          "type": "address"
        }
      ],
      "stateMutability": "view",
      "type": "function"
    },
    {
      "inputs": [
        {
          "internalType": "uint256",
          "name": "",
          "type": "uint256"
        }
      ],
      "name": "prePrintCIDMap",
      "outputs": [
        {
          "internalType": "string",
          "name": "",
          "type": "string"
        }
      ],
      "stateMutability": "view",
      "type": "function"
    },
    {
      "inputs": [
        {
          "internalType": "uint256",
          "name": "_startIndex",
          "type": "uint256"
        },
        {
          "internalType": "uint256",
          "name": "_endIndex",
          "type": "uint256"
        }
      ],
      "name": "prePrintCIDs",
      "outputs": [
        {
          "internalType": "string[]",
          "name": "",
          "type": "string[]"
        }
      ],
      "stateMutability": "view",
      "type": "function"
    },
    {
      "inputs": [],
      "name": "prePrintCnt",
      "outputs": [
        {
          "internalType": "uint256",
          "name": "",
          "type": "uint256"
        }
      ],
      "stateMutability": "view",
      "type": "function"
    },
    {
      "inputs": [
        {
          "internalType": "string",
          "name": "",
          "type": "string"
        }
      ],
      "name": "prePrints",
      "outputs": [
        {
          "internalType": "address",
          "name": "submitAddress",
          "type": "address"
        },
        {
          "internalType": "uint256",
          "name": "submitTime",
          "type": "uint256"
        },
        {
          "internalType": "string",
          "name": "keyInfo",
          "type": "string"
        }
      ],
      "stateMutability": "view",
      "type": "function"
    },
    {
      "inputs": [
        {
          "internalType": "string",
          "name": "_fileCID",
          "type": "string"
        },
        {
          "internalType": "string",
          "name": "_keyInfo",
          "type": "string"
        },
        {
          "internalType": "string",
          "name": "_description",
          "type": "string"
        }
      ],
      "name": "submit",
      "outputs": [],
      "stateMutability": "nonpayable",
      "type": "function"
    },
    {
      "inputs": [
        {
          "internalType": "address payable",
          "name": "newOwner",
          "type": "address"
        }
      ],
      "name": "transferOwnership",
      "outputs": [],
      "stateMutability": "nonpayable",
      "type": "function"
    },
    {
      "inputs": [],
      "name": "withdraw",
      "outputs": [],
      "stateMutability": "payable",
      "type": "function"
    },
    {
      "stateMutability": "payable",
      "type": "receive"
    }
  ],
  "bytecode": "0x6080604052600080546001600160a01b03191633179055610c71806100256000396000f3fe6080604052600436106100955760003560e01c80638da5cb5b116100595780638da5cb5b146101495780638f32d59b14610181578063d6c927f9146101ac578063eaaa85c8146101c2578063f2fde38b146101ef57600080fd5b806312065fe0146100a1578063164e0a0e146100c35780633ccfd60b146100f057806346fb5ac6146100fa57806387074cf41461011a57600080fd5b3661009c57005b600080fd5b3480156100ad57600080fd5b50475b6040519081526020015b60405180910390f35b3480156100cf57600080fd5b506100e36100de366004610857565b61020f565b6040516100ba91906108d5565b6100f86103ea565b005b34801561010657600080fd5b506100f86101153660046109da565b61044b565b34801561012657600080fd5b5061013a610135366004610a62565b6105df565b6040516100ba93929190610a9f565b34801561015557600080fd5b50600054610169906001600160a01b031681565b6040516001600160a01b0390911681526020016100ba565b34801561018d57600080fd5b506000546001600160a01b0316331460405190151581526020016100ba565b3480156101b857600080fd5b506100b060015481565b3480156101ce57600080fd5b506101e26101dd366004610acf565b61069f565b6040516100ba9190610ae8565b3480156101fb57600080fd5b506100f861020a366004610b02565b610739565b60608183111561025c5760405162461bcd60e51b8152602060048201526013602482015272496e76616c696420696e6465782072616e676560681b60448201526064015b60405180910390fd5b60015482106102a25760405162461bcd60e51b8152602060048201526012602482015271496e646578206f7574206f662072616e676560701b6044820152606401610253565b60006102ae8484610b41565b6102b9906001610b58565b67ffffffffffffffff8111156102d1576102d1610937565b60405190808252806020026020018201604052801561030457816020015b60608152602001906001900390816102ef5790505b509050835b8381116103e2576000818152600260205260409020805461032990610b70565b80601f016020809104026020016040519081016040528092919081815260200182805461035590610b70565b80156103a25780601f10610377576101008083540402835291602001916103a2565b820191906000526020600020905b81548152906001019060200180831161038557829003601f168201915b50505050508286836103b49190610b41565b815181106103c4576103c4610bab565b602002602001018190525080806103da90610bc1565b915050610309565b509392505050565b6000546001600160a01b0316331461040157600080fd5b6000471161040e57600080fd5b600080546040516001600160a01b03909116914780156108fc02929091818181858888f19350505050158015610448573d6000803e3d6000fd5b50565b60006001600160a01b03166003846040516104669190610bdc565b908152604051908190036020019020546001600160a01b0316146104cc5760405162461bcd60e51b815260206004820152601c60248201527f54686520636964206f662066696c6520686173206578697374656421000000006044820152606401610253565b60015460009081526002602090815260409091208451429233926104f49290918801906107be565b506001805490600061050583610bc1565b91905055506040518060600160405280826001600160a01b031681526020018381526020018581525060038660405161053e9190610bdc565b9081526040805160209281900383019020835181546001600160a01b0319166001600160a01b03909116178155838301516001820155908301518051919261058e926002850192909101906107be565b5090505081816001600160a01b03167fa5e80738a605c48e5990a58fec3730554b8011eec29c52f7ad07804c4173615a8787876040516105d093929190610bf8565b60405180910390a35050505050565b80516020818301810180516003825292820191909301209152805460018201546002830180546001600160a01b0390931693919261061c90610b70565b80601f016020809104026020016040519081016040528092919081815260200182805461064890610b70565b80156106955780601f1061066a57610100808354040283529160200191610695565b820191906000526020600020905b81548152906001019060200180831161067857829003601f168201915b5050505050905083565b600260205260009081526040902080546106b890610b70565b80601f01602080910402602001604051908101604052809291908181526020018280546106e490610b70565b80156107315780601f1061070657610100808354040283529160200191610731565b820191906000526020600020905b81548152906001019060200180831161071457829003601f168201915b505050505081565b6000546001600160a01b0316331461075057600080fd5b6001600160a01b03811661076357600080fd5b600080546040516001600160a01b03808516939216917f8be0079c531659141344cd1fd0a4f28419497f9722a3daafe3b4186f6b6457e091a3600080546001600160a01b0319166001600160a01b0392909216919091179055565b8280546107ca90610b70565b90600052602060002090601f0160209004810192826107ec5760008555610832565b82601f1061080557805160ff1916838001178555610832565b82800160010185558215610832579182015b82811115610832578251825591602001919060010190610817565b5061083e929150610842565b5090565b5b8082111561083e5760008155600101610843565b6000806040838503121561086a57600080fd5b50508035926020909101359150565b60005b8381101561089457818101518382015260200161087c565b838111156108a3576000848401525b50505050565b600081518084526108c1816020860160208601610879565b601f01601f19169290920160200192915050565b6000602080830181845280855180835260408601915060408160051b870101925083870160005b8281101561092a57603f198886030184526109188583516108a9565b945092850192908501906001016108fc565b5092979650505050505050565b634e487b7160e01b600052604160045260246000fd5b600082601f83011261095e57600080fd5b813567ffffffffffffffff8082111561097957610979610937565b604051601f8301601f19908116603f011681019082821181831017156109a1576109a1610937565b816040528381528660208588010111156109ba57600080fd5b836020870160208301376000602085830101528094505050505092915050565b6000806000606084860312156109ef57600080fd5b833567ffffffffffffffff80821115610a0757600080fd5b610a138783880161094d565b94506020860135915080821115610a2957600080fd5b610a358783880161094d565b93506040860135915080821115610a4b57600080fd5b50610a588682870161094d565b9150509250925092565b600060208284031215610a7457600080fd5b813567ffffffffffffffff811115610a8b57600080fd5b610a978482850161094d565b949350505050565b60018060a01b0384168152826020820152606060408201526000610ac660608301846108a9565b95945050505050565b600060208284031215610ae157600080fd5b5035919050565b602081526000610afb60208301846108a9565b9392505050565b600060208284031215610b1457600080fd5b81356001600160a01b0381168114610afb57600080fd5b634e487b7160e01b600052601160045260246000fd5b600082821015610b5357610b53610b2b565b500390565b60008219821115610b6b57610b6b610b2b565b500190565b600181811c90821680610b8457607f821691505b60208210811415610ba557634e487b7160e01b600052602260045260246000fd5b50919050565b634e487b7160e01b600052603260045260246000fd5b6000600019821415610bd557610bd5610b2b565b5060010190565b60008251610bee818460208701610879565b9190910192915050565b606081526000610c0b60608301866108a9565b8281036020840152610c1d81866108a9565b90508281036040840152610c3181856108a9565b969550505050505056fea2646970667358221220d4098d1bedfe7a55c76ccb19033a7cb846b4884530e65449d522de7f14819e5364736f6c63430008090033",
  "linkReferences": {},
  "deployedLinkReferences": {}
}