{
  "_format": "hh-sol-artifact-1",
  "contractName": "DeSciPrint",
  "sourceName": "contracts/DeSciPrint.sol",
  "abi": [
    {
      "inputs": [
        {
          "internalType": "string",
          "name": "_name",
          "type": "string"
        }
      ],
      "stateMutability": "nonpayable",
      "type": "constructor"
    },
    {
      "anonymous": false,
      "inputs": [
        {
          "indexed": true,
          "internalType": "uint256",
          "name": "changeTime",
          "type": "uint256"
        },
        {
          "indexed": false,
          "internalType": "uint256",
          "name": "oldValue",
          "type": "uint256"
        },
        {
          "indexed": false,
          "internalType": "uint256",
          "name": "newValue",
          "type": "uint256"
        }
      ],
      "name": "ChangeEditorActLimit",
      "type": "event"
    },
    {
      "anonymous": false,
      "inputs": [
        {
          "indexed": true,
          "internalType": "uint256",
          "name": "_changeTime",
          "type": "uint256"
        },
        {
          "indexed": false,
          "internalType": "address[]",
          "name": "_newEditors",
          "type": "address[]"
        }
      ],
      "name": "ChangeEditors",
      "type": "event"
    },
    {
      "anonymous": false,
      "inputs": [
        {
          "indexed": true,
          "internalType": "string",
          "name": "_fileCID",
          "type": "string"
        },
        {
          "indexed": false,
          "internalType": "address",
          "name": "_editor",
          "type": "address"
        },
        {
          "indexed": true,
          "internalType": "uint256",
          "name": "_changeTime",
          "type": "uint256"
        }
      ],
      "name": "ChangePaperEditor",
      "type": "event"
    },
    {
      "anonymous": false,
      "inputs": [
        {
          "indexed": true,
          "internalType": "string",
          "name": "fileCID",
          "type": "string"
        },
        {
          "indexed": true,
          "internalType": "uint256",
          "name": "replyTime",
          "type": "uint256"
        },
        {
          "indexed": false,
          "internalType": "enum DeSciPrint.ProcessStatus",
          "name": "status",
          "type": "uint8"
        }
      ],
      "name": "ChangePaperStatus",
      "type": "event"
    },
    {
      "anonymous": false,
      "inputs": [
        {
          "indexed": true,
          "internalType": "address",
          "name": "_editor",
          "type": "address"
        },
        {
          "indexed": true,
          "internalType": "uint256",
          "name": "_changeTime",
          "type": "uint256"
        },
        {
          "indexed": true,
          "internalType": "string",
          "name": "_fileCID",
          "type": "string"
        },
        {
          "indexed": false,
          "internalType": "address[]",
          "name": "_newReviewers",
          "type": "address[]"
        }
      ],
      "name": "ChangeReviewers",
      "type": "event"
    },
    {
      "anonymous": false,
      "inputs": [
        {
          "indexed": true,
          "internalType": "address",
          "name": "balanceOwner",
          "type": "address"
        },
        {
          "indexed": false,
          "internalType": "uint256",
          "name": "finalAmount",
          "type": "uint256"
        },
        {
          "indexed": true,
          "internalType": "uint256",
          "name": "changeTime",
          "type": "uint256"
        }
      ],
      "name": "ChangeToken",
      "type": "event"
    },
    {
      "anonymous": false,
      "inputs": [
        {
          "indexed": false,
          "internalType": "enum DeSciPrint.ValueType",
          "name": "valueType",
          "type": "uint8"
        },
        {
          "indexed": true,
          "internalType": "uint256",
          "name": "changeTime",
          "type": "uint256"
        },
        {
          "indexed": true,
          "internalType": "uint256",
          "name": "index",
          "type": "uint256"
        },
        {
          "indexed": false,
          "internalType": "uint256",
          "name": "oldAmount",
          "type": "uint256"
        },
        {
          "indexed": false,
          "internalType": "uint256",
          "name": "newAmount",
          "type": "uint256"
        }
      ],
      "name": "ChangeValue",
      "type": "event"
    },
    {
      "anonymous": false,
      "inputs": [
        {
          "indexed": true,
          "internalType": "address",
          "name": "commentator",
          "type": "address"
        },
        {
          "indexed": true,
          "internalType": "uint256",
          "name": "commentTime",
          "type": "uint256"
        },
        {
          "indexed": true,
          "internalType": "string",
          "name": "targetCID",
          "type": "string"
        },
        {
          "indexed": false,
          "internalType": "string",
          "name": "commentCID",
          "type": "string"
        },
        {
          "indexed": false,
          "internalType": "enum DeSciPrint.ReviewerStatus",
          "name": "status",
          "type": "uint8"
        }
      ],
      "name": "Comment",
      "type": "event"
    },
    {
      "anonymous": false,
      "inputs": [
        {
          "indexed": true,
          "internalType": "uint256",
          "name": "_changeTime",
          "type": "uint256"
        },
        {
          "indexed": true,
          "internalType": "address",
          "name": "previousOwner",
          "type": "address"
        },
        {
          "indexed": true,
          "internalType": "address",
          "name": "newOwner",
          "type": "address"
        }
      ],
      "name": "OwnershipTransferred",
      "type": "event"
    },
    {
      "anonymous": false,
      "inputs": [
        {
          "indexed": true,
          "internalType": "string",
          "name": "fileCID",
          "type": "string"
        },
        {
          "indexed": true,
          "internalType": "address",
          "name": "toCommentator",
          "type": "address"
        },
        {
          "indexed": true,
          "internalType": "uint256",
          "name": "replyTime",
          "type": "uint256"
        },
        {
          "indexed": false,
          "internalType": "string",
          "name": "replyCID",
          "type": "string"
        }
      ],
      "name": "ReplyComment",
      "type": "event"
    },
    {
      "anonymous": false,
      "inputs": [
        {
          "indexed": false,
          "internalType": "string",
          "name": "prevCID",
          "type": "string"
        },
        {
          "indexed": false,
          "internalType": "string",
          "name": "fileCID",
          "type": "string"
        },
        {
          "indexed": false,
          "internalType": "string",
          "name": "keyInfo",
          "type": "string"
        },
        {
          "indexed": true,
          "internalType": "address",
          "name": "submitAddress",
          "type": "address"
        },
        {
          "indexed": true,
          "internalType": "uint256",
          "name": "submitTime",
          "type": "uint256"
        },
        {
          "indexed": false,
          "internalType": "string",
          "name": "description",
          "type": "string"
        },
        {
          "indexed": false,
          "internalType": "uint256",
          "name": "amount",
          "type": "uint256"
        }
      ],
      "name": "Submit",
      "type": "event"
    },
    {
      "inputs": [
        {
          "internalType": "string",
          "name": "fileCID",
          "type": "string"
        },
        {
          "internalType": "address",
          "name": "reviewer",
          "type": "address"
        }
      ],
      "name": "_isReviewer",
      "outputs": [
        {
          "internalType": "bool",
          "name": "",
          "type": "bool"
        }
      ],
      "stateMutability": "view",
      "type": "function"
    },
    {
      "inputs": [],
      "name": "bonusWeight",
      "outputs": [
        {
          "internalType": "uint256[9]",
          "name": "",
          "type": "uint256[9]"
        }
      ],
      "stateMutability": "view",
      "type": "function"
    },
    {
      "inputs": [
        {
          "internalType": "string",
          "name": "fileCID",
          "type": "string"
        },
        {
          "internalType": "address",
          "name": "newEditor",
          "type": "address"
        }
      ],
      "name": "changeEditor",
      "outputs": [],
      "stateMutability": "nonpayable",
      "type": "function"
    },
    {
      "inputs": [
        {
          "internalType": "uint256",
          "name": "_startIndex",
          "type": "uint256"
        },
        {
          "internalType": "uint256",
          "name": "_endIndex",
          "type": "uint256"
        }
      ],
      "name": "deSciFileCIDs",
      "outputs": [
        {
          "internalType": "string[]",
          "name": "",
          "type": "string[]"
        }
      ],
      "stateMutability": "view",
      "type": "function"
    },
    {
      "inputs": [
        {
          "internalType": "uint256",
          "name": "",
          "type": "uint256"
        }
      ],
      "name": "deSciPrintCIDMap",
      "outputs": [
        {
          "internalType": "string",
          "name": "",
          "type": "string"
        }
      ],
      "stateMutability": "view",
      "type": "function"
    },
    {
      "inputs": [],
      "name": "deSciPrintCnt",
      "outputs": [
        {
          "internalType": "uint256",
          "name": "",
          "type": "uint256"
        }
      ],
      "stateMutability": "view",
      "type": "function"
    },
    {
      "inputs": [
        {
          "internalType": "string",
          "name": "",
          "type": "string"
        }
      ],
      "name": "deSciPrints",
      "outputs": [
        {
          "internalType": "address",
          "name": "submitAddress",
          "type": "address"
        },
        {
          "internalType": "uint256",
          "name": "submitTime",
          "type": "uint256"
        },
        {
          "internalType": "string",
          "name": "keyInfo",
          "type": "string"
        },
        {
          "internalType": "string",
          "name": "prevCID",
          "type": "string"
        },
        {
          "internalType": "string",
          "name": "nextCID",
          "type": "string"
        }
      ],
      "stateMutability": "view",
      "type": "function"
    },
    {
      "inputs": [
        {
          "internalType": "string",
          "name": "",
          "type": "string"
        }
      ],
      "name": "deSciProcess",
      "outputs": [
        {
          "internalType": "uint256",
          "name": "donate",
          "type": "uint256"
        },
        {
          "internalType": "address",
          "name": "editor",
          "type": "address"
        },
        {
          "internalType": "enum DeSciPrint.ProcessStatus",
          "name": "processStatus",
          "type": "uint8"
        },
        {
          "internalType": "uint8",
          "name": "editorActCnt",
          "type": "uint8"
        },
        {
          "internalType": "uint256",
          "name": "donateUsed",
          "type": "uint256"
        }
      ],
      "stateMutability": "view",
      "type": "function"
    },
    {
      "inputs": [
        {
          "internalType": "string",
          "name": "",
          "type": "string"
        },
        {
          "internalType": "address",
          "name": "",
          "type": "address"
        }
      ],
      "name": "deSciReviews",
      "outputs": [
        {
          "internalType": "string",
          "name": "comment",
          "type": "string"
        },
        {
          "internalType": "uint256",
          "name": "commentTime",
          "type": "uint256"
        },
        {
          "internalType": "enum DeSciPrint.ReviewerStatus",
          "name": "reviewerStatus",
          "type": "uint8"
        },
        {
          "internalType": "string",
          "name": "reply",
          "type": "string"
        },
        {
          "internalType": "uint256",
          "name": "replyTime",
          "type": "uint256"
        }
      ],
      "stateMutability": "view",
      "type": "function"
    },
    {
      "inputs": [],
      "name": "editorActLimit",
      "outputs": [
        {
          "internalType": "uint8",
          "name": "",
          "type": "uint8"
        }
      ],
      "stateMutability": "view",
      "type": "function"
    },
    {
      "inputs": [
        {
          "internalType": "string",
          "name": "fileCID",
          "type": "string"
        },
        {
          "internalType": "string",
          "name": "comment_",
          "type": "string"
        }
      ],
      "name": "editorReject",
      "outputs": [],
      "stateMutability": "nonpayable",
      "type": "function"
    },
    {
      "inputs": [],
      "name": "editors",
      "outputs": [
        {
          "internalType": "address[]",
          "name": "",
          "type": "address[]"
        }
      ],
      "stateMutability": "view",
      "type": "function"
    },
    {
      "inputs": [
        {
          "internalType": "uint256",
          "name": "",
          "type": "uint256"
        }
      ],
      "name": "gasFee",
      "outputs": [
        {
          "internalType": "uint256",
          "name": "",
          "type": "uint256"
        }
      ],
      "stateMutability": "view",
      "type": "function"
    },
    {
      "inputs": [],
      "name": "getBalance",
      "outputs": [
        {
          "internalType": "uint256",
          "name": "",
          "type": "uint256"
        }
      ],
      "stateMutability": "view",
      "type": "function"
    },
    {
      "inputs": [
        {
          "internalType": "string",
          "name": "fileCID",
          "type": "string"
        }
      ],
      "name": "getReviewers",
      "outputs": [
        {
          "internalType": "address[]",
          "name": "",
          "type": "address[]"
        }
      ],
      "stateMutability": "view",
      "type": "function"
    },
    {
      "inputs": [],
      "name": "isEditor",
      "outputs": [
        {
          "internalType": "bool",
          "name": "",
          "type": "bool"
        }
      ],
      "stateMutability": "view",
      "type": "function"
    },
    {
      "inputs": [],
      "name": "isOwner",
      "outputs": [
        {
          "internalType": "bool",
          "name": "",
          "type": "bool"
        }
      ],
      "stateMutability": "view",
      "type": "function"
    },
    {
      "inputs": [],
      "name": "name",
      "outputs": [
        {
          "internalType": "string",
          "name": "",
          "type": "string"
        }
      ],
      "stateMutability": "view",
      "type": "function"
    },
    {
      "inputs": [],
      "name": "owner",
      "outputs": [
        {
          "internalType": "address payable",
          "name": "",
          "type": "address"
        }
      ],
      "stateMutability": "view",
      "type": "function"
    },
    {
      "inputs": [
        {
          "internalType": "enum DeSciPrint.ProcessStatus",
          "name": "_status",
          "type": "uint8"
        },
        {
          "internalType": "uint256",
          "name": "_startIndex",
          "type": "uint256"
        },
        {
          "internalType": "uint256",
          "name": "_endIndex",
          "type": "uint256"
        }
      ],
      "name": "printsPool",
      "outputs": [
        {
          "internalType": "string[]",
          "name": "printsPool_",
          "type": "string[]"
        }
      ],
      "stateMutability": "view",
      "type": "function"
    },
    {
      "inputs": [
        {
          "internalType": "address[]",
          "name": "editorAddrs",
          "type": "address[]"
        }
      ],
      "name": "pushEditors",
      "outputs": [],
      "stateMutability": "nonpayable",
      "type": "function"
    },
    {
      "inputs": [
        {
          "internalType": "address[]",
          "name": "editorAddrs",
          "type": "address[]"
        }
      ],
      "name": "removeEditor",
      "outputs": [],
      "stateMutability": "nonpayable",
      "type": "function"
    },
    {
      "inputs": [
        {
          "internalType": "string",
          "name": "fileCID",
          "type": "string"
        },
        {
          "internalType": "address[]",
          "name": "_reviewers",
          "type": "address[]"
        }
      ],
      "name": "removeReviewer",
      "outputs": [],
      "stateMutability": "nonpayable",
      "type": "function"
    },
    {
      "inputs": [
        {
          "internalType": "string",
          "name": "preFileCID",
          "type": "string"
        },
        {
          "internalType": "string",
          "name": "_fileCID",
          "type": "string"
        },
        {
          "internalType": "string",
          "name": "_keyInfo",
          "type": "string"
        },
        {
          "internalType": "string",
          "name": "_description",
          "type": "string"
        },
        {
          "internalType": "uint256",
          "name": "_amount",
          "type": "uint256"
        }
      ],
      "name": "replyNew",
      "outputs": [],
      "stateMutability": "payable",
      "type": "function"
    },
    {
      "inputs": [
        {
          "internalType": "string",
          "name": "fileCID",
          "type": "string"
        },
        {
          "internalType": "address",
          "name": "reviewer",
          "type": "address"
        },
        {
          "internalType": "string",
          "name": "replyCID",
          "type": "string"
        }
      ],
      "name": "replyReviewInfo",
      "outputs": [],
      "stateMutability": "nonpayable",
      "type": "function"
    },
    {
      "inputs": [
        {
          "internalType": "string",
          "name": "fileCID",
          "type": "string"
        },
        {
          "internalType": "string",
          "name": "reviewCID",
          "type": "string"
        },
        {
          "internalType": "enum DeSciPrint.ReviewerStatus",
          "name": "status",
          "type": "uint8"
        }
      ],
      "name": "reviewPrint",
      "outputs": [],
      "stateMutability": "nonpayable",
      "type": "function"
    },
    {
      "inputs": [
        {
          "internalType": "string",
          "name": "fileCID",
          "type": "string"
        },
        {
          "internalType": "address[]",
          "name": "reviewers_",
          "type": "address[]"
        }
      ],
      "name": "reviewerAssign",
      "outputs": [],
      "stateMutability": "nonpayable",
      "type": "function"
    },
    {
      "inputs": [
        {
          "internalType": "string",
          "name": "",
          "type": "string"
        },
        {
          "internalType": "address",
          "name": "",
          "type": "address"
        }
      ],
      "name": "reviewerIndex",
      "outputs": [
        {
          "internalType": "uint256",
          "name": "",
          "type": "uint256"
        }
      ],
      "stateMutability": "view",
      "type": "function"
    },
    {
      "inputs": [
        {
          "internalType": "uint256",
          "name": "amount",
          "type": "uint256"
        },
        {
          "internalType": "uint8",
          "name": "index",
          "type": "uint8"
        }
      ],
      "name": "setBonusWeight",
      "outputs": [],
      "stateMutability": "nonpayable",
      "type": "function"
    },
    {
      "inputs": [
        {
          "internalType": "uint8",
          "name": "limitCnt",
          "type": "uint8"
        }
      ],
      "name": "setEditorActLimit",
      "outputs": [],
      "stateMutability": "nonpayable",
      "type": "function"
    },
    {
      "inputs": [
        {
          "internalType": "uint256",
          "name": "amount",
          "type": "uint256"
        },
        {
          "internalType": "uint8",
          "name": "index",
          "type": "uint8"
        }
      ],
      "name": "setGasFee",
      "outputs": [],
      "stateMutability": "nonpayable",
      "type": "function"
    },
    {
      "inputs": [
        {
          "internalType": "string",
          "name": "_fileCID",
          "type": "string"
        },
        {
          "internalType": "string",
          "name": "_keyInfo",
          "type": "string"
        },
        {
          "internalType": "string",
          "name": "_description",
          "type": "string"
        },
        {
          "internalType": "uint256",
          "name": "_amount",
          "type": "uint256"
        }
      ],
      "name": "submitForReview",
      "outputs": [],
      "stateMutability": "payable",
      "type": "function"
    },
    {
      "inputs": [
        {
          "internalType": "address",
          "name": "",
          "type": "address"
        }
      ],
      "name": "tokenBalance",
      "outputs": [
        {
          "internalType": "uint256",
          "name": "",
          "type": "uint256"
        }
      ],
      "stateMutability": "view",
      "type": "function"
    },
    {
      "inputs": [],
      "name": "totalUserBalance",
      "outputs": [
        {
          "internalType": "uint256",
          "name": "total",
          "type": "uint256"
        }
      ],
      "stateMutability": "view",
      "type": "function"
    },
    {
      "inputs": [
        {
          "internalType": "address payable",
          "name": "newOwner",
          "type": "address"
        }
      ],
      "name": "transferOwnership",
      "outputs": [],
      "stateMutability": "nonpayable",
      "type": "function"
    },
    {
      "inputs": [],
      "name": "withdrawAvalible",
      "outputs": [],
      "stateMutability": "payable",
      "type": "function"
    },
    {
      "inputs": [],
      "name": "withdrawToken",
      "outputs": [],
      "stateMutability": "payable",
      "type": "function"
    },
    {
      "stateMutability": "payable",
      "type": "receive"
    }
  ],
  "bytecode": "0x61012060405266b1a2bc2ec50000608090815266470de4df82000060a0526618de76816d800060c05266038d7ea4c6800060e0526501d1a94a2000610100526200004e90600490600562000143565b506040805161012081018252600380825260066020830152918101829052606081019190915260016080820181905260a0820181905260c0820152600260e08201526005610100820152620000a7906009908162000191565b506012805460ff19166004179055348015620000c257600080fd5b5060405162004b2638038062004b26833981016040819052620000e59162000271565b600080546001600160a01b03191633908117825560405190919042907f16b85f49bf01212961345d3016c9a531894accf62eb7680f2045d79185cc0ec0908390a480516200013b906003906020840190620001c7565b50506200038a565b82600581019282156200017f579160200282015b828111156200017f578251829066ffffffffffffff1690559160200191906001019062000157565b506200018d92915062000244565b5090565b82600981019282156200017f579160200282015b828111156200017f578251829060ff16905591602001919060010190620001a5565b828054620001d5906200034d565b90600052602060002090601f016020900481019282620001f957600085556200017f565b82601f106200021457805160ff19168380011785556200017f565b828001600101855582156200017f579182015b828111156200017f57825182559160200191906001019062000227565b5b808211156200018d576000815560010162000245565b634e487b7160e01b600052604160045260246000fd5b600060208083850312156200028557600080fd5b82516001600160401b03808211156200029d57600080fd5b818501915085601f830112620002b257600080fd5b815181811115620002c757620002c76200025b565b604051601f8201601f19908116603f01168101908382118183101715620002f257620002f26200025b565b8160405282815288868487010111156200030b57600080fd5b600093505b828410156200032f578484018601518185018701529285019262000310565b82841115620003415760008684830101525b98975050505050505050565b600181811c908216806200036257607f821691505b602082108114156200038457634e487b7160e01b600052602260045260246000fd5b50919050565b61478c806200039a6000396000f3fe60806040526004361061021e5760003560e01c80638f32d59b11610123578063c9163b95116100ab578063dc64e5a01161006f578063dc64e5a01461069a578063ebdcc0fb146106ba578063eedc966a146106da578063f2fde38b14610707578063f64506a11461072757600080fd5b8063c9163b9514610627578063ca628c781461063a578063cd8adad314610642578063ce95bed714610662578063d73d135a1461068457600080fd5b8063bdf7d6f4116100f2578063bdf7d6f414610548578063c0e814e714610568578063c10799d9146105dd578063c4c0567b146105fd578063c77e11ed1461061257600080fd5b80638f32d59b146104d45780638fdfa1201461050057806390c2929f14610520578063b9303c2c1461054057600080fd5b80634d1c85f4116101a65780636288645911610175578063628864591461042a578063766007721461043f578063791ff8b51461046c5780638a59c83e1461048c5780638da5cb5b146104ac57600080fd5b80634d1c85f414610382578063527d0927146103a25780635f0e1c46146103c2578063623ac2341461040a57600080fd5b80632a750835116101ed5780632a750835146102b4578063330ba2d4146102d4578063331399d5146103005780633bc2a299146103205780633d8467711461035157600080fd5b806306fdde031461022a578063081d17ce1461025557806312065fe0146102825780631cc1185c1461029f57600080fd5b3661022557005b600080fd5b34801561023657600080fd5b5061023f610747565b60405161024c9190613bef565b60405180910390f35b34801561026157600080fd5b50610275610270366004613cb7565b6107d5565b60405161024c9190613ceb565b34801561028e57600080fd5b50475b60405190815260200161024c565b6102b26102ad366004613d38565b610852565b005b3480156102c057600080fd5b506102b26102cf366004613dd8565b610a38565b3480156102e057600080fd5b506012546102ee9060ff1681565b60405160ff909116815260200161024c565b34801561030c57600080fd5b5061023f61031b366004613df3565b610aa8565b34801561032c57600080fd5b5061034061033b366004613cb7565b610ac1565b60405161024c959493929190613e0c565b34801561035d57600080fd5b5061037161036c366004613e7a565b610c9d565b60405161024c959493929190613ef5565b34801561038e57600080fd5b506102b261039d366004613fc8565b610dfe565b3480156103ae57600080fd5b506102b26103bd366004613ffc565b610f56565b3480156103ce57600080fd5b506102916103dd366004613e7a565b81516020818401810180516019825292820194820194909420919093529091526000908152604090205481565b34801561041657600080fd5b506102b261042536600461405f565b611674565b34801561043657600080fd5b50610275611782565b34801561044b57600080fd5b5061045f61045a36600461408b565b6117e4565b60405161024c91906140c4565b34801561047857600080fd5b506102b2610487366004613e7a565b611a13565b34801561049857600080fd5b506102916104a7366004613df3565b611ac3565b3480156104b857600080fd5b506000546040516001600160a01b03909116815260200161024c565b3480156104e057600080fd5b506000546001600160a01b031633145b604051901515815260200161024c565b34801561050c57600080fd5b506102b261051b366004614126565b611ada565b34801561052c57600080fd5b506102b261053b36600461419d565b611cc8565b6102b2611f1c565b34801561055457600080fd5b506102b2610563366004613fc8565b611fd4565b34801561057457600080fd5b506105cc610583366004613cb7565b8051602081830181018051601782529282019190930120915280546001820154600383015460049093015491926001600160a01b039091169160ff808316926101009004169085565b60405161024c959493929190614206565b3480156105e957600080fd5b506102b26105f8366004613ffc565b6121ac565b34801561060957600080fd5b50610291612759565b34801561061e57600080fd5b506104f06127c5565b6102b261063536600461423f565b6127e5565b6102b2612db9565b34801561064e57600080fd5b506102b261065d3660046142f3565b612e5e565b34801561066e57600080fd5b506106776132a7565b60405161024c919061436e565b34801561069057600080fd5b50610291601a5481565b3480156106a657600080fd5b5061045f6106b53660046143a0565b6132e2565b3480156106c657600080fd5b506102b26106d536600461405f565b6134b9565b3480156106e657600080fd5b506102916106f53660046143c2565b60136020526000908152604090205481565b34801561071357600080fd5b506102b26107223660046143c2565b613541565b34801561073357600080fd5b506104f0610742366004613e7a565b613564565b60038054610754906143df565b80601f0160208091040260200160405190810160405280929190818152602001828054610780906143df565b80156107cd5780601f106107a2576101008083540402835291602001916107cd565b820191906000526020600020905b8154815290600101906020018083116107b057829003601f168201915b505050505081565b60606017826040516107e7919061441a565b908152604080519182900360209081018320600201805480830285018301909352828452919083018282801561084657602002820191906000526020600020905b81546001600160a01b03168152600190910190602001808311610828575b50505050509050919050565b60006001600160a01b031660168560405161086d919061441a565b908152604051908190036020019020546001600160a01b0316146108ca5760405162461bcd60e51b815260206004820152600f60248201526e46696c65206369642065786973742160881b60448201526064015b60405180910390fd5b60085481108015906108e857506004546108e49082614462565b3410155b6109295760405162461bcd60e51b81526020600482015260126024820152714e6f7420656e6f75676820616d6f756e742160701b60448201526064016108c1565b6040514290339060009060169061094190899061441a565b908152602001604051809103902090506000601788604051610963919061441a565b9081526040516020918190038201902083546001600160a01b0319166001600160a01b0386161784556001840186905588519092506109aa916002850191908a0190613ae3565b50848155601a546000908152601b6020908152604090912089516109d0928b0190613ae3565b50601a80549060006109e18361447a565b919050555083836001600160a01b03167fd73c2e1385e101ba8f6aba7e7ea2444b614e5d95ff252698ad33fbf140cf62248a8a8a8a604051610a269493929190614495565b60405180910390a35050505050505050565b6000546001600160a01b03163314610a4f57600080fd5b6012546040805160ff9283168152918316602083015242917fedd5c03b2687814a78d5e886568bd2521266cdfa30df1bfbdfd5a99dd3134479910160405180910390a26012805460ff191660ff92909216919091179055565b601b6020526000908152604090208054610754906143df565b80516020818301810180516016825292820191909301209152805460018201546002830180546001600160a01b03909316939192610afe906143df565b80601f0160208091040260200160405190810160405280929190818152602001828054610b2a906143df565b8015610b775780601f10610b4c57610100808354040283529160200191610b77565b820191906000526020600020905b815481529060010190602001808311610b5a57829003601f168201915b505050505090806003018054610b8c906143df565b80601f0160208091040260200160405190810160405280929190818152602001828054610bb8906143df565b8015610c055780601f10610bda57610100808354040283529160200191610c05565b820191906000526020600020905b815481529060010190602001808311610be857829003601f168201915b505050505090806004018054610c1a906143df565b80601f0160208091040260200160405190810160405280929190818152602001828054610c46906143df565b8015610c935780601f10610c6857610100808354040283529160200191610c93565b820191906000526020600020905b815481529060010190602001808311610c7657829003601f168201915b5050505050905085565b815160208184018101805160188252928201948201949094209190935290915260009081526040902080548190610cd3906143df565b80601f0160208091040260200160405190810160405280929190818152602001828054610cff906143df565b8015610d4c5780601f10610d2157610100808354040283529160200191610d4c565b820191906000526020600020905b815481529060010190602001808311610d2f57829003601f168201915b50505050600183015460028401546003850180549495929460ff909216935090610d75906143df565b80601f0160208091040260200160405190810160405280929190818152602001828054610da1906143df565b8015610dee5780601f10610dc357610100808354040283529160200191610dee565b820191906000526020600020905b815481529060010190602001808311610dd157829003601f168201915b5050505050908060040154905085565b6000546001600160a01b03163314610e1557600080fd5b60008060005b8351811015610f1757838181518110610e3657610e36614436565b6020026020010151925060026000846001600160a01b03166001600160a01b0316815260200190815260200160002054600014610ea85760405162461bcd60e51b815260206004820152601060248201526f223ab83634b1b0ba329032b234ba37b960811b60448201526064016108c1565b6001805480820182557fb10e2d527612073b26eecdfd717e6a320cf44b4afac2b0732d9fcbe2b7fa0cf60180546001600160a01b0319166001600160a01b0386169081179091559054600091825260026020526040909120819055915080610f0f8161447a565b915050610e1b565b50427f8647069ed80c2b54dd83c1d5a10f3e826beddf63bfd481e228a29ec127e926966001604051610f4991906144ee565b60405180910390a2505050565b610f5e6127c5565b610f6757600080fd5b816000825111610fb95760405162461bcd60e51b815260206004820152601f60248201527f4e6565642072656d6f7665206174206c6561737420312072657669657765720060448201526064016108c1565b6000601784604051610fcb919061441a565b90815260405190819003602001902090506002810160005b8451811015611280576000601887604051610ffe919061441a565b9081526020016040518091039020600087848151811061102057611020614436565b6020908102919091018101516001600160a01b031682528101919091526040016000206002015460ff16600381111561105b5761105b613ecb565b146110b35760405162461bcd60e51b815260206004820152602260248201527f43616e206f6e6c792072656d6f7665206e6f20616374696f6e2072657669657760448201526132b960f11b60648201526084016108c1565b60006019876040516110c5919061441a565b908152602001604051809103902060008784815181106110e7576110e7614436565b60200260200101516001600160a01b03166001600160a01b03168152602001908152602001600020549050600081111561126d578254600090849061112e90600190614532565b8154811061113e5761113e614436565b6000918252602090912001546001600160a01b031690508084611162600185614532565b8154811061117257611172614436565b9060005260206000200160006101000a8154816001600160a01b0302191690836001600160a01b03160217905550838054806111b0576111b0614549565b600082815260209020810160001990810180546001600160a01b031916905501905560405182906019906111e5908b9061441a565b9081526040805191829003602090810183206001600160a01b038616600090815291529081209290925560199061121d908b9061441a565b9081526020016040518091039020600089868151811061123f5761123f614436565b60200260200101516001600160a01b03166001600160a01b0316815260200190815260200160002081905550505b50806112788161447a565b915050610fe3565b50600382018054610100900460ff1690600161129b8361455f565b825460ff91821661010093840a908102908302199091161790925560125460038601549083169190049091161190506112da576112da336005876135af565b846040516112e8919061441a565b604051809103902042336001600160a01b03167f0e93b815f020b17f2a87d1c46b3b8fa7b19779f8e56484610860a522cbb7f2458560020160405161132d91906144ee565b60405180910390a450506000601782604051611349919061441a565b908152602001604051809103902090506000816002018054806020026020016040519081016040528092919081815260200182805480156113b357602002820191906000526020600020905b81546001600160a01b03168152600190910190602001808311611395575b505083519394505050600382111590506113df5760405162461bcd60e51b81526004016108c19061457f565b60008060008060005b865181101561151857600060188a604051611403919061441a565b9081526020016040518091039020600089848151811061142557611425614436565b60200260200101516001600160a01b03166001600160a01b03168152602001908152602001600020905060038081111561146157611461613ecb565b600282015460ff16600381111561147a5761147a613ecb565b1415611492578561148a8161455f565b965050611505565b60028082015460ff1660038111156114ac576114ac613ecb565b14156114c457846114bc8161455f565b955050611505565b6001600282015460ff1660038111156114df576114df613ecb565b14156114f757836114ef8161455f565b945050611505565b826115018161455f565b9350505b50806115108161447a565b9150506113e8565b50600285101561153e576003870180546004919060ff19166001835b0217905550611610565b60028460ff161061157b5760038701805460ff191660079081179091556001880154611576916001600160a01b03909116908a6135af565b611610565b60028360ff1610611599576003878101805460ff1916600183611534565b8460021480156115ac57508260ff166001145b156115c7576003870180546004919060ff1916600183611534565b60ff81161580156115e5575060026115df85846145b6565b60ff1610155b15611600576003870180546005919060ff1916600183611534565b60038701805460ff191660011790555b428860405161161f919061441a565b60405190819003812060038a015490917fcd0a46f0407ac506909f1a76f082c52b7cfd464b81cd339d9dfa6ce0bd4e0d0b916116609160ff909116906145db565b60405180910390a350505050505050505050565b6000546001600160a01b0316331461168b57600080fd5b60ff8116427ff7c77e287027034c18f1c8d96da90ae14f3722e8354912f8cc0909ef54e2ad396000600484600581106116c6576116c6614436565b0154866040516116d8939291906145e9565b60405180910390a38160048260ff16600581106116f7576116f7614436565b0155600654611707906003614611565b6005546117149190614462565b600454101561177e5760405162461bcd60e51b815260206004820152603060248201527f546865206d696e4761732073686f756c6420636f76657220656469746f72206160448201526f1b99081c995d9a595dd95c8818dbdcdd60821b60648201526084016108c1565b5050565b606060018054806020026020016040519081016040528092919081815260200182805480156117da57602002820191906000526020600020905b81546001600160a01b031681526001909101906020018083116117bc575b5050505050905090565b60606000806117f38585614532565b6117fe906001614462565b6001600160401b0381111561181557611815613c02565b60405190808252806020026020018201604052801561184857816020015b60608152602001906001900390816118335790505b50905061185585856132e2565b905060005b81518110156118eb5786600781111561187557611875613ecb565b601783838151811061188957611889614436565b602002602001015160405161189e919061441a565b9081526040519081900360200190206003015460ff1660078111156118c5576118c5613ecb565b14156118d957826118d58161447a565b9350505b806118e38161447a565b91505061185a565b50816001600160401b0381111561190457611904613c02565b60405190808252806020026020018201604052801561193757816020015b60608152602001906001900390816119225790505b5092506000805b8251811015611a075787600781111561195957611959613ecb565b601784838151811061196d5761196d614436565b6020026020010151604051611982919061441a565b9081526040519081900360200190206003015460ff1660078111156119a9576119a9613ecb565b14156119f5578281815181106119c1576119c1614436565b60200260200101518583815181106119db576119db614436565b602002602001018190525081806119f19061447a565b9250505b806119ff8161447a565b91505061193e565b505050505b9392505050565b6000546001600160a01b03163314611a2a57600080fd5b80601783604051611a3b919061441a565b90815260405190819003602001812060010180546001600160a01b03939093166001600160a01b0319909316929092179091554290611a7b90849061441a565b6040519081900381206001600160a01b0384168252907fd0b75777e1940ba2e1eea216dfe11be2d1626052ace315b8c4bb00ed08433ff1906020015b60405180910390a35050565b60048160058110611ad357600080fd5b0154905081565b82336001600160a01b0316601682604051611af5919061441a565b908152604051908190036020019020546001600160a01b031614611b555760405162461bcd60e51b8152602060048201526017602482015276596f7520617265206e6f742074686520617574686f722160481b60448201526064016108c1565b611b5f8484613564565b611b9e5760405162461bcd60e51b815260206004820152601060248201526f2737ba103a3432903932bb34b2bbb2b960811b60448201526064016108c1565b6000601885604051611bb0919061441a565b90815260408051602092819003830190206001600160a01b0387166000908152925281209150600282015460ff166003811115611bef57611bef613ecb565b1415611c4b5760405162461bcd60e51b815260206004820152602560248201527f43616e6e6f74207265706c79206265666f726520636f6d6d656e74207375626d6044820152641a5d1d195960da1b60648201526084016108c1565b8251611c609060038301906020860190613ae3565b5042600482018190556040516001600160a01b03861690611c8290889061441a565b60405180910390207f4be1db525a52abf3e496931c5a618f370e2777699f088d96c9fba23562638b1d86604051611cb99190613bef565b60405180910390a45050505050565b611cd06127c5565b611cd957600080fd5b816000601782604051611cec919061441a565b90815260405190819003602001902060018101549091506001600160a01b0316331480611d24575060018101546001600160a01b0316155b611d405760405162461bcd60e51b81526004016108c190614630565b6000600382015460ff166007811115611d5b57611d5b613ecb565b1480611d7f57506004600382015460ff166007811115611d7d57611d7d613ecb565b145b611d9b5760405162461bcd60e51b81526004016108c190614676565b6000601785604051611dad919061441a565b9081526040519081900360200181206001810180546001600160a01b03191633179055600381018054600260ff199091161790559150600090601890611df490889061441a565b9081526040805160209281900383019020336000908152908352208651909250611e2391839190880190613ae3565b50426001828101919091556002808301805460ff19169091179055600383018054610100900460ff1691611e568361455f565b825460ff91821661010093840a908102908302199091161790925560038501540416600114159050611e9257611e9233600460015b0154613658565b601254600383015460ff91821661010090910490911611611eb957611eb9336006886135af565b85604051611ec7919061441a565b604051809103902042336001600160a01b03167f4a9cce9b254e8b389c556799b85c8d5c1a55d8fbd36b84f4e945d297775409b6886002604051611f0c9291906146c5565b60405180910390a4505050505050565b6000546001600160a01b03163314611f3357600080fd5b6000611f3d612759565b90506000611f4b8247614532565b905060008111611f925760405162461bcd60e51b81526020600482015260126024820152714e6f7420656e6f7567682062616c616e636560701b60448201526064016108c1565b600080546040516001600160a01b039091169182916108fc85150291859190818181858888f19350505050158015611fce573d6000803e3d6000fd5b50505050565b6000546001600160a01b03163314611feb57600080fd5b60005b815181101561216f5760006002600084848151811061200f5761200f614436565b60200260200101516001600160a01b03166001600160a01b03168152602001908152602001600020549050600081111561215c576001805460009190612056908290614532565b8154811061206657612066614436565b6000918252602090912001546001600160a01b0316905080600161208a8185614532565b8154811061209a5761209a614436565b9060005260206000200160006101000a8154816001600160a01b0302191690836001600160a01b0316021790555060018054806120d9576120d9614549565b60008281526020808220830160001990810180546001600160a01b03191690559092019092556001600160a01b0383168252600290819052604082208490558551829087908790811061212e5761212e614436565b60200260200101516001600160a01b03166001600160a01b0316815260200190815260200160002081905550505b50806121678161447a565b915050611fee565b50427f8647069ed80c2b54dd83c1d5a10f3e826beddf63bfd481e228a29ec127e9269660016040516121a191906144ee565b60405180910390a250565b6121b46127c5565b6121bd57600080fd5b8160006017826040516121d0919061441a565b90815260405190819003602001902060018101549091506001600160a01b0316331480612208575060018101546001600160a01b0316155b6122245760405162461bcd60e51b81526004016108c190614630565b6000600382015460ff16600781111561223f5761223f613ecb565b148061226357506004600382015460ff16600781111561226157612261613ecb565b145b61227f5760405162461bcd60e51b81526004016108c190614676565b8360008451116122d15760405162461bcd60e51b815260206004820152601960248201527f4e656564206d6f7265207468616e20312072657669657765720000000000000060448201526064016108c1565b60006017866040516122e3919061441a565b90815260405190819003602001902060018101549091506001600160a01b0316612366576001810180546001600160a01b03191633179055604051429061232b90889061441a565b604051908190038120338252907fd0b75777e1940ba2e1eea216dfe11be2d1626052ace315b8c4bb00ed08433ff19060200160405180910390a35b612370868661374b565b600381018054610100900460ff1690600161238a8361455f565b825460ff91821661010093840a9081029083021990911617909255600384015404166001141590506123c3576123c33360046001611e8b565b601254600382015460ff918216610100909104909116116124195760006004600383015460ff1660078111156123fb576123fb613ecb565b1461240757600361240a565b60045b90506124173382896135af565b505b50600060178260405161242c919061441a565b9081526020016040518091039020905060008160020180548060200260200160405190810160405280929190818152602001828054801561249657602002820191906000526020600020905b81546001600160a01b03168152600190910190602001808311612478575b505083519394505050600382111590506124c25760405162461bcd60e51b81526004016108c19061457f565b60008060008060005b86518110156125fb57600060188a6040516124e6919061441a565b9081526020016040518091039020600089848151811061250857612508614436565b60200260200101516001600160a01b03166001600160a01b03168152602001908152602001600020905060038081111561254457612544613ecb565b600282015460ff16600381111561255d5761255d613ecb565b1415612575578561256d8161455f565b9650506125e8565b60028082015460ff16600381111561258f5761258f613ecb565b14156125a7578461259f8161455f565b9550506125e8565b6001600282015460ff1660038111156125c2576125c2613ecb565b14156125da57836125d28161455f565b9450506125e8565b826125e48161455f565b9350505b50806125f38161447a565b9150506124cb565b506002851015612621576003870180546004919060ff19166001835b02179055506126f3565b60028460ff161061265e5760038701805460ff191660079081179091556001880154612659916001600160a01b03909116908a6135af565b6126f3565b60028360ff161061267c576003878101805460ff1916600183612617565b84600214801561268f57508260ff166001145b156126aa576003870180546004919060ff1916600183612617565b60ff81161580156126c8575060026126c285846145b6565b60ff1610155b156126e3576003870180546005919060ff1916600183612617565b60038701805460ff191660011790555b4288604051612702919061441a565b60405190819003812060038a015490917fcd0a46f0407ac506909f1a76f082c52b7cfd464b81cd339d9dfa6ce0bd4e0d0b916127439160ff909116906145db565b60405180910390a3505050505050505050505050565b6000805b6014548110156127c157601360006014838154811061277e5761277e614436565b60009182526020808320909101546001600160a01b031683528201929092526040019020546127ad9083614462565b9150806127b98161447a565b91505061275d565b5090565b336000908152600260205260408120548190156127e0575060015b919050565b84336001600160a01b0316601682604051612800919061441a565b908152604051908190036020019020546001600160a01b0316146128605760405162461bcd60e51b8152602060048201526017602482015276596f7520617265206e6f742074686520617574686f722160481b60448201526064016108c1565b846000601788604051612873919061441a565b90815260405190819003602001902090506005600382015460ff16600781111561289f5761289f613ecb565b146128ec5760405162461bcd60e51b815260206004820152601f60248201527f546865207374617475732073686f756c64206265204e6565645265766973650060448201526064016108c1565b6128f887878787610852565b600060168960405161290a919061441a565b9081526020016040518091039020905087816004019080519060200190612932929190613ae3565b5060038201805460ff19166006179055604051600090601690612956908b9061441a565b908152602001604051809103902090508981600301908051906020019061297e929190613ae3565b50600060178a604051612991919061441a565b90815260408051918290036020908101832060018089015490820180546001600160a01b0319166001600160a01b0390921691909117905560028801805480840286018401909452838552909450612a2a938e939092830182828015612a2057602002820191906000526020600020905b81546001600160a01b03168152600190910190602001808311612a02575b505050505061374b565b42336001600160a01b03167fd73c2e1385e101ba8f6aba7e7ea2444b614e5d95ff252698ad33fbf140cf62248d8d8d8d8d604051612a6c9594939291906146e7565b60405180910390a3505050506000601782604051612a8a919061441a565b90815260200160405180910390209050600081600201805480602002602001604051908101604052809291908181526020018280548015612af457602002820191906000526020600020905b81546001600160a01b03168152600190910190602001808311612ad6575b50508351939450505060038211159050612b205760405162461bcd60e51b81526004016108c19061457f565b60008060008060005b8651811015612c5957600060188a604051612b44919061441a565b90815260200160405180910390206000898481518110612b6657612b66614436565b60200260200101516001600160a01b03166001600160a01b031681526020019081526020016000209050600380811115612ba257612ba2613ecb565b600282015460ff166003811115612bbb57612bbb613ecb565b1415612bd35785612bcb8161455f565b965050612c46565b60028082015460ff166003811115612bed57612bed613ecb565b1415612c055784612bfd8161455f565b955050612c46565b6001600282015460ff166003811115612c2057612c20613ecb565b1415612c385783612c308161455f565b945050612c46565b82612c428161455f565b9350505b5080612c518161447a565b915050612b29565b506002851015612c7f576003870180546004919060ff19166001835b0217905550612d51565b60028460ff1610612cbc5760038701805460ff191660079081179091556001880154612cb7916001600160a01b03909116908a6135af565b612d51565b60028360ff1610612cda576003878101805460ff1916600183612c75565b846002148015612ced57508260ff166001145b15612d08576003870180546004919060ff1916600183612c75565b60ff8116158015612d2657506002612d2085846145b6565b60ff1610155b15612d41576003870180546005919060ff1916600183612c75565b60038701805460ff191660011790555b4288604051612d60919061441a565b60405190819003812060038a015490917fcd0a46f0407ac506909f1a76f082c52b7cfd464b81cd339d9dfa6ce0bd4e0d0b91612da19160ff909116906145db565b60405180910390a35050505050505050505050505050565b336000908152601360205260409020546007548111612dd757600080fd5b612de0336138e6565b604051339082156108fc029083906000818181858888f19350505050158015612e0d573d6000803e3d6000fd5b5033600081815260136020526040908190205490514292917fc2f04a53105a84edcdd4d3b6f505eb551630d976f083f331997dfdb2f2d5a0e891612e5391815260200190565b60405180910390a350565b82612e698133613564565b612ecd5760405162461bcd60e51b815260206004820152602f60248201527f596f752068617665206e6f207175616c696669636174696f6e20746f2072657660448201526e69657720746869732070617065722160881b60648201526084016108c1565b836000836003811115612ee257612ee2613ecb565b1415612f305760405162461bcd60e51b815260206004820152601f60248201527f4d757374206368616e676520746865205265766965776572537461747573210060448201526064016108c1565b6000601886604051612f42919061441a565b9081526040805160209281900383019020336000908152925281209150600282015460ff166003811115612f7857612f78613ecb565b14612fc55760405162461bcd60e51b815260206004820181905260248201527f596f752068617665207375626d69747465642074686520636f6d6d656e74732160448201526064016108c1565b8451612fd79082906020880190613ae3565b5042600180830191909155600282018054869260ff199091169083600381111561300357613003613ecb565b02179055506130153360046002611e8b565b6000600385600381111561302b5761302b613ecb565b14156130395750600061305f565b600185600381111561304d5761304d613ecb565b141561305b5750600161305f565b5060025b61306a3382896135af565b86604051613078919061441a565b604051809103902042336001600160a01b03167f4a9cce9b254e8b389c556799b85c8d5c1a55d8fbd36b84f4e945d297775409b689896040516130bc9291906146c5565b60405180910390a4505060006017826040516130d8919061441a565b9081526020016040518091039020905060008160020180548060200260200160405190810160405280929190818152602001828054801561314257602002820191906000526020600020905b81546001600160a01b03168152600190910190602001808311613124575b5050835193945050506003821115905061316e5760405162461bcd60e51b81526004016108c19061457f565b60008060008060005b86518110156125fb57600060188a604051613192919061441a565b908152602001604051809103902060008984815181106131b4576131b4614436565b60200260200101516001600160a01b03166001600160a01b0316815260200190815260200160002090506003808111156131f0576131f0613ecb565b600282015460ff16600381111561320957613209613ecb565b141561322157856132198161455f565b965050613294565b60028082015460ff16600381111561323b5761323b613ecb565b1415613253578461324b8161455f565b955050613294565b6001600282015460ff16600381111561326e5761326e613ecb565b1415613286578361327e8161455f565b945050613294565b826132908161455f565b9350505b508061329f8161447a565b915050613177565b6132af613b63565b6040805161012081019182905290600990819081845b8154815260200190600101908083116132c5575050505050905090565b60608183111561332a5760405162461bcd60e51b8152602060048201526013602482015272496e76616c696420696e6465782072616e676560681b60448201526064016108c1565b601a5482106133705760405162461bcd60e51b8152602060048201526012602482015271496e646578206f7574206f662072616e676560701b60448201526064016108c1565b600061337c8484614532565b613387906001614462565b6001600160401b0381111561339e5761339e613c02565b6040519080825280602002602001820160405280156133d157816020015b60608152602001906001900390816133bc5790505b509050835b8381116134af576000818152601b6020526040902080546133f6906143df565b80601f0160208091040260200160405190810160405280929190818152602001828054613422906143df565b801561346f5780601f106134445761010080835404028352916020019161346f565b820191906000526020600020905b81548152906001019060200180831161345257829003601f168201915b50505050508286836134819190614532565b8151811061349157613491614436565b602002602001018190525080806134a79061447a565b9150506133d6565b5090505b92915050565b6000546001600160a01b031633146134d057600080fd5b60ff8116427ff7c77e287027034c18f1c8d96da90ae14f3722e8354912f8cc0909ef54e2ad39600160098481811061350a5761350a614436565b01548660405161351c939291906145e9565b60405180910390a38160098260ff166009811061353b5761353b614436565b01555050565b6000546001600160a01b0316331461355857600080fd5b613561816139f5565b50565b6000806000905060198460405161357b919061441a565b90815260408051602092819003830190206001600160a01b0386166000908152925290205415611a0c575060019392505050565b60006017826040516135c1919061441a565b9081526020016040518091039020905060006135e1826000015485613a66565b905081600001548183600401546135f89190614462565b1161362657808260040160008282546136119190614462565b9091555061362190508582613658565b613651565b8154600483015410156136515781546004830181905561365190869061364c9080614532565b613658565b5050505050565b6001600160a01b0382166000908152601560205260409020546136d057601480546001810182557fce6d7b5282bd9a3661ae061feed1dbda4e52ab073b1f9285be6e155d9c38d4ec0180546001600160a01b0319166001600160a01b0385169081179091559054600091825260156020526040909120555b6001600160a01b038216600090815260136020526040812080548392906136f8908490614462565b90915550506001600160a01b038216600081815260136020526040908190205490514292917fc2f04a53105a84edcdd4d3b6f505eb551630d976f083f331997dfdb2f2d5a0e891611ab791815260200190565b600060178360405161375d919061441a565b9081526020016040518091039020905060008060005b84518160ff16101561389257848160ff168151811061379457613794614436565b602002602001015192506019866040516137ae919061441a565b90815260408051602092819003830190206001600160a01b03861660009081529252902054156138155760405162461bcd60e51b8152602060048201526012602482015271223ab83634b1b0ba32903932bb34b2bbb2b960711b60448201526064016108c1565b6002840180546001810182556000828152602090200180546001600160a01b0319166001600160a01b03861617905554604051909250829060199061385b90899061441a565b90815260408051602092819003830190206001600160a01b038716600090815292529020558061388a8161455f565b915050613773565b50846040516138a1919061441a565b604051809103902042336001600160a01b03167f0e93b815f020b17f2a87d1c46b3b8fa7b19779f8e56484610860a522cbb7f24586600201604051611cb991906144ee565b6001600160a01b03811660009081526013602090815260408083208390556015909152902054801561177e57601480546000919061392690600190614532565b8154811061393657613936614436565b6000918252602090912001546001600160a01b0316905080601461395b600185614532565b8154811061396b5761396b614436565b9060005260206000200160006101000a8154816001600160a01b0302191690836001600160a01b0316021790555060148054806139aa576139aa614549565b60008281526020808220600019908401810180546001600160a01b03191690559092019092556001600160a01b03948516825260159052604080822082905591909316835290912055565b6001600160a01b038116613a0857600080fd5b600080546040516001600160a01b038085169392169142917f16b85f49bf01212961345d3016c9a531894accf62eb7680f2045d79185cc0ec09190a4600080546001600160a01b0319166001600160a01b0392909216919091179055565b60008060005b60098160ff161015613aae5760098160ff1660098110613a8e57613a8e614436565b0154613a9a9083614462565b915080613aa68161455f565b915050613a6c565b5060098360ff1660098110613ac557613ac5614436565b0154613ad18286614734565b613adb9190614611565b949350505050565b828054613aef906143df565b90600052602060002090601f016020900481019282613b115760008555613b57565b82601f10613b2a57805160ff1916838001178555613b57565b82800160010185558215613b57579182015b82811115613b57578251825591602001919060010190613b3c565b506127c1929150613b82565b6040518061012001604052806009906020820280368337509192915050565b5b808211156127c15760008155600101613b83565b60005b83811015613bb2578181015183820152602001613b9a565b83811115611fce5750506000910152565b60008151808452613bdb816020860160208601613b97565b601f01601f19169290920160200192915050565b602081526000611a0c6020830184613bc3565b634e487b7160e01b600052604160045260246000fd5b604051601f8201601f191681016001600160401b0381118282101715613c4057613c40613c02565b604052919050565b600082601f830112613c5957600080fd5b81356001600160401b03811115613c7257613c72613c02565b613c85601f8201601f1916602001613c18565b818152846020838601011115613c9a57600080fd5b816020850160208301376000918101602001919091529392505050565b600060208284031215613cc957600080fd5b81356001600160401b03811115613cdf57600080fd5b613adb84828501613c48565b6020808252825182820181905260009190848201906040850190845b81811015613d2c5783516001600160a01b031683529284019291840191600101613d07565b50909695505050505050565b60008060008060808587031215613d4e57600080fd5b84356001600160401b0380821115613d6557600080fd5b613d7188838901613c48565b95506020870135915080821115613d8757600080fd5b613d9388838901613c48565b94506040870135915080821115613da957600080fd5b50613db687828801613c48565b949793965093946060013593505050565b803560ff811681146127e057600080fd5b600060208284031215613dea57600080fd5b611a0c82613dc7565b600060208284031215613e0557600080fd5b5035919050565b60018060a01b038616815284602082015260a060408201526000613e3360a0830186613bc3565b8281036060840152613e458186613bc3565b90508281036080840152613e598185613bc3565b98975050505050505050565b6001600160a01b038116811461356157600080fd5b60008060408385031215613e8d57600080fd5b82356001600160401b03811115613ea357600080fd5b613eaf85828601613c48565b9250506020830135613ec081613e65565b809150509250929050565b634e487b7160e01b600052602160045260246000fd5b60048110613ef157613ef1613ecb565b9052565b60a081526000613f0860a0830188613bc3565b866020840152613f1b6040840187613ee1565b8281036060840152613f2d8186613bc3565b9150508260808301529695505050505050565b600082601f830112613f5157600080fd5b813560206001600160401b03821115613f6c57613f6c613c02565b8160051b613f7b828201613c18565b9283528481018201928281019087851115613f9557600080fd5b83870192505b84831015613fbd578235613fae81613e65565b82529183019190830190613f9b565b979650505050505050565b600060208284031215613fda57600080fd5b81356001600160401b03811115613ff057600080fd5b613adb84828501613f40565b6000806040838503121561400f57600080fd5b82356001600160401b038082111561402657600080fd5b61403286838701613c48565b9350602085013591508082111561404857600080fd5b5061405585828601613f40565b9150509250929050565b6000806040838503121561407257600080fd5b8235915061408260208401613dc7565b90509250929050565b6000806000606084860312156140a057600080fd5b8335600881106140af57600080fd5b95602085013595506040909401359392505050565b6000602080830181845280855180835260408601915060408160051b870101925083870160005b8281101561411957603f19888603018452614107858351613bc3565b945092850192908501906001016140eb565b5092979650505050505050565b60008060006060848603121561413b57600080fd5b83356001600160401b038082111561415257600080fd5b61415e87838801613c48565b94506020860135915061417082613e65565b9092506040850135908082111561418657600080fd5b5061419386828701613c48565b9150509250925092565b600080604083850312156141b057600080fd5b82356001600160401b03808211156141c757600080fd5b6141d386838701613c48565b935060208501359150808211156141e957600080fd5b5061405585828601613c48565b60088110613ef157613ef1613ecb565b8581526001600160a01b038516602082015260a0810161422960408301866141f6565b60ff939093166060820152608001529392505050565b600080600080600060a0868803121561425757600080fd5b85356001600160401b038082111561426e57600080fd5b61427a89838a01613c48565b9650602088013591508082111561429057600080fd5b61429c89838a01613c48565b955060408801359150808211156142b257600080fd5b6142be89838a01613c48565b945060608801359150808211156142d457600080fd5b506142e188828901613c48565b95989497509295608001359392505050565b60008060006060848603121561430857600080fd5b83356001600160401b038082111561431f57600080fd5b61432b87838801613c48565b9450602086013591508082111561434157600080fd5b5061434e86828701613c48565b92505060408401356004811061436357600080fd5b809150509250925092565b6101208101818360005b6009811015614397578151835260209283019290910190600101614378565b50505092915050565b600080604083850312156143b357600080fd5b50508035926020909101359150565b6000602082840312156143d457600080fd5b8135611a0c81613e65565b600181811c908216806143f357607f821691505b6020821081141561441457634e487b7160e01b600052602260045260246000fd5b50919050565b6000825161442c818460208701613b97565b9190910192915050565b634e487b7160e01b600052603260045260246000fd5b634e487b7160e01b600052601160045260246000fd5b600082198211156144755761447561444c565b500190565b600060001982141561448e5761448e61444c565b5060010190565b60a08152600060a082015260c0602082015260006144b660c0830187613bc3565b82810360408401526144c88187613bc3565b905082810360608401526144dc8186613bc3565b91505082608083015295945050505050565b6020808252825482820181905260008481528281209092916040850190845b81811015613d2c5783546001600160a01b03168352600193840193928501920161450d565b6000828210156145445761454461444c565b500390565b634e487b7160e01b600052603160045260246000fd5b600060ff821660ff8114156145765761457661444c565b60010192915050565b60208082526018908201527f4e6f206d6f7265207468616e2033207265766965776572730000000000000000604082015260600190565b600060ff821660ff84168060ff038211156145d3576145d361444c565b019392505050565b602081016134b382846141f6565b60608101600285106145fd576145fd613ecb565b938152602081019290925260409091015290565b600081600019048311821515161561462b5761462b61444c565b500290565b60208082526026908201527f43616e27742062652070726f63657373656420627920646966666572656e742060408201526532b234ba37b960d11b606082015260800190565b6020808252602f908201527f43616e206f6e6c792061737369676e20746f2070656e64696e67206f7220617060408201526e3832b73216b732b2b2103830b832b960891b606082015260800190565b6040815260006146d86040830185613bc3565b9050611a0c6020830184613ee1565b60a0815260006146fa60a0830188613bc3565b828103602084015261470c8188613bc3565b905082810360408401526147208187613bc3565b90508281036060840152613f2d8186613bc3565b60008261475157634e487b7160e01b600052601260045260246000fd5b50049056fea264697066735822122015cdba8fff94734e654390c7592430488a5edcee5c7f1aec6e13b686921a6d1d64736f6c63430008090033",
  "linkReferences": {},
  "deployedLinkReferences": {}
}